:100000000128FE290100010001000100010001009A
:1000100001000100010001000100010001000100D8
:1000200001000100010001000100010001000100C8
:1000300001000100010001000100010001000100B8
:1000400001000100010001000100010001000100A8
:100050000100010001000100010001000100010098
:100060000100010001000100010001000100010088
:100070000100010001000100010001000100010078
:100080000100010001000100010001000100010068
:100090000100010001000100010001000100010058
:1000A0000100010001000100010001000100010048
:1000B0000100010001000100010001000100010038
:1000C0000100010001000100010001000100010028
:1000D0000100010001000100010001000100010018
:1000E0000100010001000100010001000100010008
:1000F00001000100010001000100010001000100F8
:1001000001000100010001000100010001000100E7
:1001100001000100010001000100010001000100D7
:1001200001000100010001000100010001000100C7
:1001300001000100010001000100010001000100B7
:1001400001000100010001000100010001000100A7
:100150000100010001000100010001000100010097
:100160000100010001000100010001000100010087
:100170000100010001000100010001000100010077
:100180000100010001000100010001000100010067
:100190000100010001000100010001000100010057
:1001A0000100010001000100010001000100010047
:1001B0000100010001000100010001000100010037
:1001C0000100010001000100010001000100010027
:1001D0000100010001000100010001000100010017
:1001E0000100010001000100010001000100010007
:1001F00001000100010001000100010001000100F7
:10020000363401349B3400344D3400340100010095
:1002100001000100010001000100010001000100D6
:1002200001000100010001000100010001000100C6
:1002300001000100010001000100010001000100B6
:1002400001000100010001000100010001000100A6
:100250000100010001000100010001000100010096
:100260000100010001000100010001000100010086
:100270000100010001000100010001000100010076
:100280000100010001000100010001000100010066
:100290000100010001000100010001000100010056
:1002A0000100010001000100010001000100010046
:1002B0000100010001000100010001000100010036
:1002C0000100010001000100010001000100010026
:1002D0000100010001000100010001000100010016
:1002E0000100010001000100010001000100010006
:1002F00001000100010001000100010001000100F6
:1003000001000100010001000100010001000100E5
:1003100001000100010001000100010001000100D5
:1003200001000100010001000100010001000100C5
:1003300001000100010001000100010001000100B5
:1003400001000100010023008C01203022008C00FC
:10035000083021008C0027008C15210095130830EF
:1003600024008C000800A321F80103307802031850
:10037000B4297808F600F701F635F70D0030760756
:1003800084008130773D8500003FF000013FF1009F
:10039000D42121001708C1391C38970063000130AF
:1003A000F6007608F807B529033022009D002130B9
:1003B0003B00B00071089600700895007108A60017
:1003C0007008A50091019201A101A20100309400E2
:1003D000023093000030A4000130A30000309800E8
:1003E0000130970003308F000230AE0002309E00D3
:1003F000A001D0309B00C030AB0008002000B32922
:020000040001F9
:04000E00BCF9FDDE5E
:00000001FF
