:040000000128ED2BBB
:1004000001345F3400340234C834003403343C34E3
:1004100001340434C1340134053454340234063414
:10042000F43402340734AB34033408347C340434F9
:100430000934813405340A3413340834F401F501E5
:10044000701C262A7208F4077308F53D0130F23556
:10045000F30D890B272A0130F136F00C890B2C2A79
:1004600070087104031D202A7508F1007408F0005B
:100470000800033023009200EF30910073220A300D
:10048000F0000030F10023001408F3001308F2001C
:10049000CA227108F7007008F600080023008C01DA
:1004A000203022008C00083021008C0027008C15A1
:1004B00021009513083024008C000800F000013062
:1004C000F002700A0319080022008C120C1620306A
:1004D0008C005F2A230055309600AA3096009514B0
:1004E0000000000008002300151315140000000090
:0204F000080002
:10059400700871040319F12AF501F50AF11BDC2A2C
:1005A4000130F035F10D890BD32A0130F4007408C1
:1005B400F507D02A71087302031DE22A700872023B
:1005C400031CE82A7008F2027108F33B0130F1368B
:1005D400F00C890BE92A0130F502031DDC2A7308AB
:1005E400F1007208F0000800033022009D00213061
:1005F4003B00B00091019201A101A20100309400DE
:10060400023093000030A4000130A3007708F10009
:100614007608F0000330F2000030F3001E22700868
:10062400013EF8000030713DF90000307807840085
:100634008230793D8500003F3B009500013F9600E4
:100644007708F1007608F0000330F2000030F30080
:100654001E227008013EF8000030713DF9000030A0
:10066400780784008230793D8500003F3B00A50077
:10067400013FA600003098000130970003308F003E
:100684000230AE0002309E00A001D0309B00C0308A
:10069400AB000800392277082000A7007608A600DE
:1006A4004E2221009618DE2B01302000A6000030D7
:1006B400A70008302700920021001708C13912381A
:1006C40097002000A401A501003025020A30031977
:1006D40024020318DE2BA201A301962B2000270875
:1006E400F1002608F0000330F2000030F3001E226F
:1006F4007108850070088400003084078230853DCD
:1007040000082000A000A10121082302031D8C2B56
:10071400200822020318902B0A305E226300013065
:100724002000A2070030A33D2708F1002608F000AE
:100734000330F2000030F3001E22710885007008B7
:100744008400003084078230853D0008033E200089
:10075400A000003003180130A10021082302031D6A
:10076400B52B200822020318D22B2700931D702BCF
:10077400931101302000A4020030A53B0A30F000A0
:100784000030F1002608013EF2000030273DF3005E
:10079400CA2271082000A7007008A6006300630045
:1007A40001302000A4070030A53D003025020A30A6
:1007B40003192402031C6D2B210096141708C13958
:1007C4002438970020002708F7002608F600F622B0
:1007D40063000100012820004C2B00340034003455
:1007E4000034003400340034003400340034003465
:0A07F40000340034003400340034F7
:020000040001F9
:04000E00BCF9FDDE5E
:00000001FF
