:100000000128F429010001000100010001000100A4
:1000100001000100010001000100010001000100D8
:1000200001000100010001000100010001000100C8
:1000300001000100010001000100010001000100B8
:1000400001000100010001000100010001000100A8
:100050000100010001000100010001000100010098
:100060000100010001000100010001000100010088
:100070000100010001000100010001000100010078
:100080000100010001000100010001000100010068
:100090000100010001000100010001000100010058
:1000A0000100010001000100010001000100010048
:1000B0000100010001000100010001000100010038
:1000C0000100010001000100010001000100010028
:1000D0000100010001000100010001000100010018
:1000E0000100010001000100010001000100010008
:1000F0000100010001000100010022009D01080033
:10010000FE0012001E00FE0B812800342300151390
:100110001514000000000800230055309600AA3096
:1001200096009514000000000800F0000130F00275
:10013000700A0319080022008C120C1620308C0063
:10014000962823008C01203022008C0008302100EA
:100150008C0027008C1521009513083024008C009A
:100160000800F300F201731CB9287008F10071084F
:10017000F2070310F00D0310F30C7308031DB328EE
:1001800072080800033023009200F03091008620AE
:100190000A30F0000030F10023001408F3001308C7
:1001A000F2000E217108F7007008F6000800033015
:1001B00023009200F03091001513151615158C20B0
:1001C000230015151513951203309200F03091009D
:1001D00071089400700893008C202300151108000A
:1001E00001345F3400340234C834003403343D3405
:1001F00001340434C0340134053453340234063439
:10020000FA3402340734B8340334083494340434F0
:100210000934953405340A34C43406347008710442
:1002200003193529F501F50AF11B20290130F035B4
:10023000F10D890B17290130F4007408F507142912
:1002400071087302031D262970087202031C2C29F1
:100250007008F2027108F33B0130F136F00C890BA3
:100260002D290130F502031D20297308F1007208C1
:10027000F0000800F500033022009D0021303B0013
:10028000B0000330F4007408F0007508B120013E9E
:10029000203E86008701403F3B009500413F96008D
:1002A0000330F4007408F0007508B120013E203ED0
:1002B00086008701403F3B00A500413FA600910119
:1002C0009201A101A201003094000230930000309D
:1002D000A4000130A30000309800013097000330E3
:1002E0008F000230AE0002309E00A001D0309B0093
:1002F000C030AB000800C2207608FC007C0820005B
:10030000C000A12021009618E8290330FC007C08D9
:100310002000BF00C0010830270092008B1520008C
:1003200040083A2121001708C139183897006300A6
:100330002700931DB5298B1121001708C1390C38EE
:1003400097006300270093118B1520008C19D92981
:100350000130FC007C08C0070A3040060319C001C8
:100360000330FC007C08BF00D92901302000BF0207
:100370008B117D2021001708C139123897006300C6
:100380002000BE010330FC007C08F0004008B120D2
:10039000203E86008701010820003E020318D9296B
:1003A0000F30952063000130FC007C082000BE0760
:1003B000C2293F08031D8E298B11270092012000BE
:1003C0004008FC00FD017C08F0007D08F100D7200A
:1003D000210096141708C1392438970020004008DE
:1003E0003A21630001000128F0308400803085004C
:1003F00020308600003087001E30802020007B29BE
:1007E0000034003400340034003400340034003469
:1007F0000034003400340034003400340034003459
:020000040001F9
:04000E00BCF9FDDE5E
:00000001FF
