:020000040000FA
:100000000000000000000000230000308C002200EF
:100010008C0121008C012100253097002200033043
:100020009D003B002130B000003092000030910074
:100030000030A2000030A100003094000230930094
:100040000030A4000130A30000309600C5309500B8
:100050000030A600C530A5000030980001309700A0
:1000600003308F000230AE0002309E000030A0004E
:10007000D0309B00C030AB006300010001000100E4
:100080000100010001000100010001000100010068
:100090000100010001000100010001000100010058
:1000A0000100010001000100010001000100010048
:1000B0000100010001000100010001000100010038
:0407FC000034003491
:020000040001F9
:02000E00BC39FB
:02001000FF38B7
:00000001FF
