:100000000128F429010001000100010001000100A4
:1000100001000100010001000100010001000100D8
:1000200001000100010001000100010001000100C8
:1000300001000100010001000100010001000100B8
:1000400001000100010001000100010001000100A8
:100050000100010001000100010001000100010098
:100060000100010001000100010001000100010088
:100070000100010001000100010001000100010078
:100080000100010001000100010001000100010068
:100090000100010001000100010001000100010058
:1000A0000100010001000100010001000100010048
:1000B0000100010001000100010001000100010038
:1000C0000100010001000100010001000100010028
:1000D0000100010001000100010001000100010018
:1000E0000100010001000100010001000100010008
:1000F00001000100010001000100010001000100F8
:1001000001000100010001000100010001000100E7
:1001100001000100010001000100010001000100D7
:1001200001000100010001000100010001000100C7
:1001300001000100010001000100010001000100B7
:100140000100010022009D010800FE0012001E00B7
:10015000FE0BA62800342300151315140000000020
:100160000800230055309600AA3096009514000030
:1001700000000800F0000130F002700A03190800C6
:1001800022008C120C1620308C00BB2823008C011E
:10019000203022008C00083021008C0027008C15B4
:1001A00021009513083024008C000800F300F201B0
:1001B000731CDE287008F1007108F2070310F00DBF
:1001C0000310F30C7308031DD828720808000330CD
:1001D00023009200F0309100151315161515B1206B
:1001E000230015151513951203309200F03091007D
:1001F0007108940070089300B120230015110800C5
:10020000033023009200F0309100AB20230014084B
:10021000F3001308F200003073020B30031972026E
:10022000031C17290A30F2020030F33B0B29730834
:10023000F1007208F0000800013476340034023412
:10024000F83400340334883401340434293402345B
:100250000534DC3402340634A634033407348B34DA
:1002600004340834913405340934C03406340A3473
:1002700023340834F500033022009D0021303B0078
:10028000B0000330F4007408F0007508D620013E79
:10029000203E86008701403F3B009500413F96008D
:1002A0000330F4007408F0007508D620013E203EAB
:1002B00086008701403F3B00A500413FA600910119
:1002C0009201A101A201003094000230930000309D
:1002D000A4000130A30000309800013097000330E3
:1002E0008F000230AE0002309E00A001D0309B0093
:1002F000C030AB00080000217008FA007A08200026
:10030000C000C62021009618E8290330FA007A08B8
:100310002000BF00C0010830270092008B1520008C
:1003200040083A2121001708C139183897006300A6
:100330002700931DB5298B1121001708C1390C38EE
:1003400097006300270093118B1520008C19D92981
:100350000130FA007A08C0070A3040060319C001CC
:100360000330FA007A08BF00D92901302000BF020B
:100370008B11A22021001708C139123897006300A1
:100380002000BE010330FA007A08F0004008D620B1
:10039000203E86008701010820003E020318D9296B
:1003A0000F30BA2063000130FA007A082000BE073F
:1003B000C2293F08031D8E298B11270092012000BE
:1003C0004008FA00FB017A08F0007B08F100E72002
:1003D000210096141708C1392438970020004008DE
:1003E0003A216300010001281C308400813085001F
:1003F00020308600003087001E30A52020007B2999
:1007E0000034003400340034003400340034003469
:1007F0000034003400340034003400340034003459
:020000040001F9
:04000E00BCF9FDDE5E
:00000001FF
